{
  "address": "0xe7f1725E7734CE288F8367e1Bb143E90bb3F0512",
  "abi": [
    {
      "inputs": [
        {
          "internalType": "address",
          "name": "priceFeedAddress",
          "type": "address"
        }
      ],
      "stateMutability": "nonpayable",
      "type": "constructor"
    },
    {
      "inputs": [],
      "name": "FundMe__NotOwner",
      "type": "error"
    },
    {
      "stateMutability": "payable",
      "type": "fallback"
    },
    {
      "inputs": [],
      "name": "MINIMUM_USD",
      "outputs": [
        {
          "internalType": "uint256",
          "name": "",
          "type": "uint256"
        }
      ],
      "stateMutability": "view",
      "type": "function"
    },
    {
      "inputs": [],
      "name": "cheaperWithdraw",
      "outputs": [],
      "stateMutability": "payable",
      "type": "function"
    },
    {
      "inputs": [],
      "name": "fund",
      "outputs": [],
      "stateMutability": "payable",
      "type": "function"
    },
    {
      "inputs": [
        {
          "internalType": "address",
          "name": "funder",
          "type": "address"
        }
      ],
      "name": "getAddressToAmountFunded",
      "outputs": [
        {
          "internalType": "uint256",
          "name": "",
          "type": "uint256"
        }
      ],
      "stateMutability": "view",
      "type": "function"
    },
    {
      "inputs": [
        {
          "internalType": "uint256",
          "name": "index",
          "type": "uint256"
        }
      ],
      "name": "getFunders",
      "outputs": [
        {
          "internalType": "address",
          "name": "",
          "type": "address"
        }
      ],
      "stateMutability": "view",
      "type": "function"
    },
    {
      "inputs": [],
      "name": "getOwner",
      "outputs": [
        {
          "internalType": "address",
          "name": "",
          "type": "address"
        }
      ],
      "stateMutability": "view",
      "type": "function"
    },
    {
      "inputs": [],
      "name": "getPriceFeed",
      "outputs": [
        {
          "internalType": "contract AggregatorV3Interface",
          "name": "",
          "type": "address"
        }
      ],
      "stateMutability": "view",
      "type": "function"
    },
    {
      "inputs": [],
      "name": "withdraw",
      "outputs": [],
      "stateMutability": "nonpayable",
      "type": "function"
    },
    {
      "stateMutability": "payable",
      "type": "receive"
    }
  ],
  "transactionHash": "0x53b396c9a686161828bada32c4ec7282e381dfd8dd6d5f8f2c4ee9c8e3567d04",
  "args": [
    "0x5FbDB2315678afecb367f032d93F642f64180aa3"
  ],
  "numDeployments": 1,
  "solcInputHash": "0ef3204d3b04a7d7e62708694e3db45e",
  "bytecode": "0x60a06040523480156200001157600080fd5b506040516200131f3803806200131f83398181016040528101906200003791906200011f565b3373ffffffffffffffffffffffffffffffffffffffff1660808173ffffffffffffffffffffffffffffffffffffffff1660601b81525050806000806101000a81548173ffffffffffffffffffffffffffffffffffffffff021916908373ffffffffffffffffffffffffffffffffffffffff1602179055505062000151565b600080fd5b600073ffffffffffffffffffffffffffffffffffffffff82169050919050565b6000620000e782620000ba565b9050919050565b620000f981620000da565b81146200010557600080fd5b50565b6000815190506200011981620000ee565b92915050565b600060208284031215620001385762000137620000b5565b5b6000620001488482850162000108565b91505092915050565b60805160601c61119a620001856000396000818161038a015281816105da015281816106290152610820015261119a6000f3fe60806040526004361061007f5760003560e01c8063893d20e81161004e578063893d20e8146101545780639e87a5cd1461017f578063b60d4288146101aa578063be2693f0146101b45761008e565b80630343fb25146100985780633a7b6c74146100d55780633ccfd60b146101125780636b69a592146101295761008e565b3661008e5761008c6101be565b005b6100966101be565b005b3480156100a457600080fd5b506100bf60048036038101906100ba9190610ad2565b6102f7565b6040516100cc9190610b18565b60405180910390f35b3480156100e157600080fd5b506100fc60048036038101906100f79190610b5f565b610340565b6040516101099190610b9b565b60405180910390f35b34801561011e57600080fd5b50610127610388565b005b34801561013557600080fd5b5061013e6105c9565b60405161014b9190610b18565b60405180910390f35b34801561016057600080fd5b506101696105d6565b6040516101769190610b9b565b60405180910390f35b34801561018b57600080fd5b506101946105fe565b6040516101a19190610c15565b60405180910390f35b6101b26101be565b005b6101bc610627565b005b6802b5e3af16b18800006101fb60008054906101000a900473ffffffffffffffffffffffffffffffffffffffff16346108ec90919063ffffffff16565b101561023c576040517f08c379a000000000000000000000000000000000000000000000000000000000815260040161023390610c8d565b60405180910390fd5b6001339080600181540180825580915050600190039060005260206000200160009091909190916101000a81548173ffffffffffffffffffffffffffffffffffffffff021916908373ffffffffffffffffffffffffffffffffffffffff16021790555034600260003373ffffffffffffffffffffffffffffffffffffffff1673ffffffffffffffffffffffffffffffffffffffff16815260200190815260200160002060008282546102ee9190610cdc565b92505081905550565b6000600260008373ffffffffffffffffffffffffffffffffffffffff1673ffffffffffffffffffffffffffffffffffffffff168152602001908152602001600020549050919050565b60006001828154811061035657610355610d32565b5b9060005260206000200160009054906101000a900473ffffffffffffffffffffffffffffffffffffffff169050919050565b7f000000000000000000000000000000000000000000000000000000000000000073ffffffffffffffffffffffffffffffffffffffff163373ffffffffffffffffffffffffffffffffffffffff161461040d576040517f579610db00000000000000000000000000000000000000000000000000000000815260040160405180910390fd5b60005b6001805490508110156104b95760006001828154811061043357610432610d32565b5b9060005260206000200160009054906101000a900473ffffffffffffffffffffffffffffffffffffffff1690506000600260008373ffffffffffffffffffffffffffffffffffffffff1673ffffffffffffffffffffffffffffffffffffffff168152602001908152602001600020819055505080806104b190610d61565b915050610410565b50600067ffffffffffffffff8111156104d5576104d4610daa565b5b6040519080825280602002602001820160405280156105035781602001602082028036833780820191505090505b50600190805190602001906105199291906109c8565b5060003373ffffffffffffffffffffffffffffffffffffffff164760405161054090610e0a565b60006040518083038185875af1925050503d806000811461057d576040519150601f19603f3d011682016040523d82523d6000602084013e610582565b606091505b50509050806105c6576040517f08c379a00000000000000000000000000000000000000000000000000000000081526004016105bd90610e6b565b60405180910390fd5b50565b6802b5e3af16b188000081565b60007f0000000000000000000000000000000000000000000000000000000000000000905090565b60008060009054906101000a900473ffffffffffffffffffffffffffffffffffffffff16905090565b7f000000000000000000000000000000000000000000000000000000000000000073ffffffffffffffffffffffffffffffffffffffff163373ffffffffffffffffffffffffffffffffffffffff16146106ac576040517f579610db00000000000000000000000000000000000000000000000000000000815260040160405180910390fd5b6000600180548060200260200160405190810160405280929190818152602001828054801561073057602002820191906000526020600020905b8160009054906101000a900473ffffffffffffffffffffffffffffffffffffffff1673ffffffffffffffffffffffffffffffffffffffff16815260200190600101908083116106e6575b5050505050905060005b81518110156107bb57600082828151811061075857610757610d32565b5b602002602001015190506000600260008373ffffffffffffffffffffffffffffffffffffffff1673ffffffffffffffffffffffffffffffffffffffff168152602001908152602001600020819055505080806107b390610d61565b91505061073a565b50600067ffffffffffffffff8111156107d7576107d6610daa565b5b6040519080825280602002602001820160405280156108055781602001602082028036833780820191505090505b506001908051906020019061081b9291906109c8565b5060007f000000000000000000000000000000000000000000000000000000000000000073ffffffffffffffffffffffffffffffffffffffff164760405161086290610e0a565b60006040518083038185875af1925050503d806000811461089f576040519150601f19603f3d011682016040523d82523d6000602084013e6108a4565b606091505b50509050806108e8576040517f08c379a00000000000000000000000000000000000000000000000000000000081526004016108df90610e6b565b60405180910390fd5b5050565b6000806108f883610928565b90506000670de0b6b3a764000085836109119190610e8b565b61091b9190610f14565b9050809250505092915050565b6000808273ffffffffffffffffffffffffffffffffffffffff1663feaf968c6040518163ffffffff1660e01b815260040160a06040518083038186803b15801561097157600080fd5b505afa158015610985573d6000803e3d6000fd5b505050506040513d601f19601f820116820180604052508101906109a99190610fd2565b5050509150506402540be400816109c0919061104d565b915050919050565b828054828255906000526020600020908101928215610a41579160200282015b82811115610a405782518260006101000a81548173ffffffffffffffffffffffffffffffffffffffff021916908373ffffffffffffffffffffffffffffffffffffffff160217905550916020019190600101906109e8565b5b509050610a4e9190610a52565b5090565b5b80821115610a6b576000816000905550600101610a53565b5090565b600080fd5b600073ffffffffffffffffffffffffffffffffffffffff82169050919050565b6000610a9f82610a74565b9050919050565b610aaf81610a94565b8114610aba57600080fd5b50565b600081359050610acc81610aa6565b92915050565b600060208284031215610ae857610ae7610a6f565b5b6000610af684828501610abd565b91505092915050565b6000819050919050565b610b1281610aff565b82525050565b6000602082019050610b2d6000830184610b09565b92915050565b610b3c81610aff565b8114610b4757600080fd5b50565b600081359050610b5981610b33565b92915050565b600060208284031215610b7557610b74610a6f565b5b6000610b8384828501610b4a565b91505092915050565b610b9581610a94565b82525050565b6000602082019050610bb06000830184610b8c565b92915050565b6000819050919050565b6000610bdb610bd6610bd184610a74565b610bb6565b610a74565b9050919050565b6000610bed82610bc0565b9050919050565b6000610bff82610be2565b9050919050565b610c0f81610bf4565b82525050565b6000602082019050610c2a6000830184610c06565b92915050565b600082825260208201905092915050565b7f4469646e27742066756e6420656e6f7567682100000000000000000000000000600082015250565b6000610c77601383610c30565b9150610c8282610c41565b602082019050919050565b60006020820190508181036000830152610ca681610c6a565b9050919050565b7f4e487b7100000000000000000000000000000000000000000000000000000000600052601160045260246000fd5b6000610ce782610aff565b9150610cf283610aff565b9250827fffffffffffffffffffffffffffffffffffffffffffffffffffffffffffffffff03821115610d2757610d26610cad565b5b828201905092915050565b7f4e487b7100000000000000000000000000000000000000000000000000000000600052603260045260246000fd5b6000610d6c82610aff565b91507fffffffffffffffffffffffffffffffffffffffffffffffffffffffffffffffff821415610d9f57610d9e610cad565b5b600182019050919050565b7f4e487b7100000000000000000000000000000000000000000000000000000000600052604160045260246000fd5b600081905092915050565b50565b6000610df4600083610dd9565b9150610dff82610de4565b600082019050919050565b6000610e1582610de7565b9150819050919050565b7f43616c6c206661696c6564000000000000000000000000000000000000000000600082015250565b6000610e55600b83610c30565b9150610e6082610e1f565b602082019050919050565b60006020820190508181036000830152610e8481610e48565b9050919050565b6000610e9682610aff565b9150610ea183610aff565b9250817fffffffffffffffffffffffffffffffffffffffffffffffffffffffffffffffff0483118215151615610eda57610ed9610cad565b5b828202905092915050565b7f4e487b7100000000000000000000000000000000000000000000000000000000600052601260045260246000fd5b6000610f1f82610aff565b9150610f2a83610aff565b925082610f3a57610f39610ee5565b5b828204905092915050565b600069ffffffffffffffffffff82169050919050565b610f6481610f45565b8114610f6f57600080fd5b50565b600081519050610f8181610f5b565b92915050565b6000819050919050565b610f9a81610f87565b8114610fa557600080fd5b50565b600081519050610fb781610f91565b92915050565b600081519050610fcc81610b33565b92915050565b600080600080600060a08688031215610fee57610fed610a6f565b5b6000610ffc88828901610f72565b955050602061100d88828901610fa8565b945050604061101e88828901610fbd565b935050606061102f88828901610fbd565b925050608061104088828901610f72565b9150509295509295909350565b600061105882610f87565b915061106383610f87565b9250827f7fffffffffffffffffffffffffffffffffffffffffffffffffffffffffffffff04821160008413600084131616156110a2576110a1610cad565b5b817f800000000000000000000000000000000000000000000000000000000000000005831260008412600084131616156110df576110de610cad565b5b827f8000000000000000000000000000000000000000000000000000000000000000058212600084136000841216161561111c5761111b610cad565b5b827f7fffffffffffffffffffffffffffffffffffffffffffffffffffffffffffffff058212600084126000841216161561115957611158610cad565b5b82820290509291505056fea2646970667358221220536c76ba54773cd7e4b9445f737d2161059a586256da955816aa66eeae4fd59c64736f6c63430008080033",
  "devdoc": {
    "kind": "dev",
    "methods": {},
    "version": 1
  },
  "userdoc": {
    "kind": "user",
    "methods": {},
    "version": 1
  },
  "storageLayout": {
    "storage": [
      {
        "astId": 61,
        "contract": "contracts/FundMe.sol:FundMe",
        "label": "s_priceFeed",
        "offset": 0,
        "slot": "0",
        "type": "t_contract(AggregatorV3Interface)45"
      },
      {
        "astId": 64,
        "contract": "contracts/FundMe.sol:FundMe",
        "label": "s_funders",
        "offset": 0,
        "slot": "1",
        "type": "t_array(t_address)dyn_storage"
      },
      {
        "astId": 68,
        "contract": "contracts/FundMe.sol:FundMe",
        "label": "s_addressToAmountFunded",
        "offset": 0,
        "slot": "2",
        "type": "t_mapping(t_address,t_uint256)"
      }
    ],
    "types": {
      "t_address": {
        "encoding": "inplace",
        "label": "address",
        "numberOfBytes": "20"
      },
      "t_array(t_address)dyn_storage": {
        "base": "t_address",
        "encoding": "dynamic_array",
        "label": "address[]",
        "numberOfBytes": "32"
      },
      "t_contract(AggregatorV3Interface)45": {
        "encoding": "inplace",
        "label": "contract AggregatorV3Interface",
        "numberOfBytes": "20"
      },
      "t_mapping(t_address,t_uint256)": {
        "encoding": "mapping",
        "key": "t_address",
        "label": "mapping(address => uint256)",
        "numberOfBytes": "32",
        "value": "t_uint256"
      },
      "t_uint256": {
        "encoding": "inplace",
        "label": "uint256",
        "numberOfBytes": "32"
      }
    }
  }
}